{
  "_format": "hh-sol-artifact-1",
  "contractName": "myTkn",
  "sourceName": "contracts/myTkn.sol",
  "abi": [
    {
      "inputs": [],
      "stateMutability": "nonpayable",
      "type": "constructor"
    },
    {
      "anonymous": false,
      "inputs": [
        {
          "indexed": true,
          "internalType": "address",
          "name": "owner",
          "type": "address"
        },
        {
          "indexed": true,
          "internalType": "address",
          "name": "spender",
          "type": "address"
        },
        {
          "indexed": false,
          "internalType": "uint256",
          "name": "value",
          "type": "uint256"
        }
      ],
      "name": "Approval",
      "type": "event"
    },
    {
      "anonymous": false,
      "inputs": [
        {
          "indexed": true,
          "internalType": "address",
          "name": "previousOwner",
          "type": "address"
        },
        {
          "indexed": true,
          "internalType": "address",
          "name": "newOwner",
          "type": "address"
        }
      ],
      "name": "OwnershipTransferred",
      "type": "event"
    },
    {
      "anonymous": false,
      "inputs": [
        {
          "indexed": true,
          "internalType": "address",
          "name": "from",
          "type": "address"
        },
        {
          "indexed": true,
          "internalType": "address",
          "name": "to",
          "type": "address"
        },
        {
          "indexed": false,
          "internalType": "uint256",
          "name": "value",
          "type": "uint256"
        }
      ],
      "name": "Transfer",
      "type": "event"
    },
    {
      "inputs": [
        {
          "internalType": "address",
          "name": "owner",
          "type": "address"
        },
        {
          "internalType": "address",
          "name": "spender",
          "type": "address"
        }
      ],
      "name": "allowance",
      "outputs": [
        {
          "internalType": "uint256",
          "name": "",
          "type": "uint256"
        }
      ],
      "stateMutability": "view",
      "type": "function"
    },
    {
      "inputs": [
        {
          "internalType": "address",
          "name": "spender",
          "type": "address"
        },
        {
          "internalType": "uint256",
          "name": "amount",
          "type": "uint256"
        }
      ],
      "name": "approve",
      "outputs": [
        {
          "internalType": "bool",
          "name": "",
          "type": "bool"
        }
      ],
      "stateMutability": "nonpayable",
      "type": "function"
    },
    {
      "inputs": [
        {
          "internalType": "address",
          "name": "account",
          "type": "address"
        }
      ],
      "name": "balanceOf",
      "outputs": [
        {
          "internalType": "uint256",
          "name": "",
          "type": "uint256"
        }
      ],
      "stateMutability": "view",
      "type": "function"
    },
    {
      "inputs": [
        {
          "internalType": "uint256",
          "name": "amount",
          "type": "uint256"
        }
      ],
      "name": "burnTokens",
      "outputs": [],
      "stateMutability": "nonpayable",
      "type": "function"
    },
    {
      "inputs": [
        {
          "internalType": "address",
          "name": "account",
          "type": "address"
        }
      ],
      "name": "checkTokenBalance",
      "outputs": [
        {
          "internalType": "uint256",
          "name": "",
          "type": "uint256"
        }
      ],
      "stateMutability": "view",
      "type": "function"
    },
    {
      "inputs": [],
      "name": "decimals",
      "outputs": [
        {
          "internalType": "uint8",
          "name": "",
          "type": "uint8"
        }
      ],
      "stateMutability": "view",
      "type": "function"
    },
    {
      "inputs": [
        {
          "internalType": "address",
          "name": "spender",
          "type": "address"
        },
        {
          "internalType": "uint256",
          "name": "subtractedValue",
          "type": "uint256"
        }
      ],
      "name": "decreaseAllowance",
      "outputs": [
        {
          "internalType": "bool",
          "name": "",
          "type": "bool"
        }
      ],
      "stateMutability": "nonpayable",
      "type": "function"
    },
    {
      "inputs": [
        {
          "internalType": "address",
          "name": "spender",
          "type": "address"
        },
        {
          "internalType": "uint256",
          "name": "addedValue",
          "type": "uint256"
        }
      ],
      "name": "increaseAllowance",
      "outputs": [
        {
          "internalType": "bool",
          "name": "",
          "type": "bool"
        }
      ],
      "stateMutability": "nonpayable",
      "type": "function"
    },
    {
      "inputs": [
        {
          "internalType": "address",
          "name": "to",
          "type": "address"
        },
        {
          "internalType": "uint256",
          "name": "amount",
          "type": "uint256"
        }
      ],
      "name": "mint",
      "outputs": [],
      "stateMutability": "nonpayable",
      "type": "function"
    },
    {
      "inputs": [],
      "name": "name",
      "outputs": [
        {
          "internalType": "string",
          "name": "",
          "type": "string"
        }
      ],
      "stateMutability": "view",
      "type": "function"
    },
    {
      "inputs": [],
      "name": "owner",
      "outputs": [
        {
          "internalType": "address",
          "name": "",
          "type": "address"
        }
      ],
      "stateMutability": "view",
      "type": "function"
    },
    {
      "inputs": [],
      "name": "renounceOwnership",
      "outputs": [],
      "stateMutability": "nonpayable",
      "type": "function"
    },
    {
      "inputs": [],
      "name": "symbol",
      "outputs": [
        {
          "internalType": "string",
          "name": "",
          "type": "string"
        }
      ],
      "stateMutability": "view",
      "type": "function"
    },
    {
      "inputs": [],
      "name": "totalSupply",
      "outputs": [
        {
          "internalType": "uint256",
          "name": "",
          "type": "uint256"
        }
      ],
      "stateMutability": "view",
      "type": "function"
    },
    {
      "inputs": [
        {
          "internalType": "address",
          "name": "to",
          "type": "address"
        },
        {
          "internalType": "uint256",
          "name": "amount",
          "type": "uint256"
        }
      ],
      "name": "transfer",
      "outputs": [
        {
          "internalType": "bool",
          "name": "",
          "type": "bool"
        }
      ],
      "stateMutability": "nonpayable",
      "type": "function"
    },
    {
      "inputs": [
        {
          "internalType": "address",
          "name": "from",
          "type": "address"
        },
        {
          "internalType": "address",
          "name": "to",
          "type": "address"
        },
        {
          "internalType": "uint256",
          "name": "amount",
          "type": "uint256"
        }
      ],
      "name": "transferFrom",
      "outputs": [
        {
          "internalType": "bool",
          "name": "",
          "type": "bool"
        }
      ],
      "stateMutability": "nonpayable",
      "type": "function"
    },
    {
      "inputs": [
        {
          "internalType": "address",
          "name": "newOwner",
          "type": "address"
        }
      ],
      "name": "transferOwnership",
      "outputs": [],
      "stateMutability": "nonpayable",
      "type": "function"
    },
    {
      "inputs": [
        {
          "internalType": "address",
          "name": "to",
          "type": "address"
        },
        {
          "internalType": "uint256",
          "name": "amount",
          "type": "uint256"
        }
      ],
      "name": "transferTokens",
      "outputs": [],
      "stateMutability": "nonpayable",
      "type": "function"
    }
  ],
  "bytecode": "0x60806040523480156200001157600080fd5b506040518060400160405280600581526020017f746f6b656e0000000000000000000000000000000000000000000000000000008152506040518060400160405280600381526020017f746b6e000000000000000000000000000000000000000000000000000000000081525081600390816200008f919062000412565b508060049081620000a1919062000412565b505050620000c4620000b8620000ca60201b60201c565b620000d260201b60201c565b620004f9565b600033905090565b6000600560009054906101000a900473ffffffffffffffffffffffffffffffffffffffff16905081600560006101000a81548173ffffffffffffffffffffffffffffffffffffffff021916908373ffffffffffffffffffffffffffffffffffffffff1602179055508173ffffffffffffffffffffffffffffffffffffffff168173ffffffffffffffffffffffffffffffffffffffff167f8be0079c531659141344cd1fd0a4f28419497f9722a3daafe3b4186f6b6457e060405160405180910390a35050565b600081519050919050565b7f4e487b7100000000000000000000000000000000000000000000000000000000600052604160045260246000fd5b7f4e487b7100000000000000000000000000000000000000000000000000000000600052602260045260246000fd5b600060028204905060018216806200021a57607f821691505b60208210810362000230576200022f620001d2565b5b50919050565b60008190508160005260206000209050919050565b60006020601f8301049050919050565b600082821b905092915050565b6000600883026200029a7fffffffffffffffffffffffffffffffffffffffffffffffffffffffffffffffff826200025b565b620002a686836200025b565b95508019841693508086168417925050509392505050565b6000819050919050565b6000819050919050565b6000620002f3620002ed620002e784620002be565b620002c8565b620002be565b9050919050565b6000819050919050565b6200030f83620002d2565b620003276200031e82620002fa565b84845462000268565b825550505050565b600090565b6200033e6200032f565b6200034b81848462000304565b505050565b5b8181101562000373576200036760008262000334565b60018101905062000351565b5050565b601f821115620003c2576200038c8162000236565b62000397846200024b565b81016020851015620003a7578190505b620003bf620003b6856200024b565b83018262000350565b50505b505050565b600082821c905092915050565b6000620003e760001984600802620003c7565b1980831691505092915050565b6000620004028383620003d4565b9150826002028217905092915050565b6200041d8262000198565b67ffffffffffffffff811115620004395762000438620001a3565b5b62000445825462000201565b6200045282828562000377565b600060209050601f8311600181146200048a576000841562000475578287015190505b620004818582620003f4565b865550620004f1565b601f1984166200049a8662000236565b60005b82811015620004c4578489015182556001820191506020850194506020810190506200049d565b86831015620004e45784890151620004e0601f891682620003d4565b8355505b6001600288020188555050505b505050505050565b611bb580620005096000396000f3fe608060405234801561001057600080fd5b50600436106101165760003560e01c806370a08231116100a2578063a457c2d711610071578063a457c2d7146102e3578063a9059cbb14610313578063bec3fa1714610343578063dd62ed3e1461035f578063f2fde38b1461038f57610116565b806370a082311461026d578063715018a61461029d5780638da5cb5b146102a757806395d89b41146102c557610116565b806323b872dd116100e957806323b872dd146101b7578063313ce567146101e7578063395093511461020557806340c10f19146102355780636d1b229d1461025157610116565b806306fdde031461011b578063095ea7b314610139578063126cbe601461016957806318160ddd14610199575b600080fd5b6101236103ab565b60405161013091906111ad565b60405180910390f35b610153600480360381019061014e9190611268565b61043d565b60405161016091906112c3565b60405180910390f35b610183600480360381019061017e91906112de565b610460565b604051610190919061131a565b60405180910390f35b6101a1610472565b6040516101ae919061131a565b60405180910390f35b6101d160048036038101906101cc9190611335565b61047c565b6040516101de91906112c3565b60405180910390f35b6101ef6104ab565b6040516101fc91906113a4565b60405180910390f35b61021f600480360381019061021a9190611268565b6104b4565b60405161022c91906112c3565b60405180910390f35b61024f600480360381019061024a9190611268565b6104eb565b005b61026b600480360381019061026691906113bf565b610501565b005b610287600480360381019061028291906112de565b61050e565b604051610294919061131a565b60405180910390f35b6102a5610556565b005b6102af61056a565b6040516102bc91906113fb565b60405180910390f35b6102cd610594565b6040516102da91906111ad565b60405180910390f35b6102fd60048036038101906102f89190611268565b610626565b60405161030a91906112c3565b60405180910390f35b61032d60048036038101906103289190611268565b61069d565b60405161033a91906112c3565b60405180910390f35b61035d60048036038101906103589190611268565b6106c0565b005b61037960048036038101906103749190611416565b6106cf565b604051610386919061131a565b60405180910390f35b6103a960048036038101906103a491906112de565b610756565b005b6060600380546103ba90611485565b80601f01602080910402602001604051908101604052809291908181526020018280546103e690611485565b80156104335780601f1061040857610100808354040283529160200191610433565b820191906000526020600020905b81548152906001019060200180831161041657829003601f168201915b5050505050905090565b6000806104486107d9565b90506104558185856107e1565b600191505092915050565b600061046b8261050e565b9050919050565b6000600254905090565b6000806104876107d9565b90506104948582856109aa565b61049f858585610a36565b60019150509392505050565b60006012905090565b6000806104bf6107d9565b90506104e08185856104d185896106cf565b6104db91906114e5565b6107e1565b600191505092915050565b6104f3610cac565b6104fd8282610d2a565b5050565b61050b3382610e80565b50565b60008060008373ffffffffffffffffffffffffffffffffffffffff1673ffffffffffffffffffffffffffffffffffffffff168152602001908152602001600020549050919050565b61055e610cac565b610568600061104d565b565b6000600560009054906101000a900473ffffffffffffffffffffffffffffffffffffffff16905090565b6060600480546105a390611485565b80601f01602080910402602001604051908101604052809291908181526020018280546105cf90611485565b801561061c5780601f106105f15761010080835404028352916020019161061c565b820191906000526020600020905b8154815290600101906020018083116105ff57829003601f168201915b5050505050905090565b6000806106316107d9565b9050600061063f82866106cf565b905083811015610684576040517f08c379a000000000000000000000000000000000000000000000000000000000815260040161067b9061158b565b60405180910390fd5b61069182868684036107e1565b60019250505092915050565b6000806106a86107d9565b90506106b5818585610a36565b600191505092915050565b6106cb338383610a36565b5050565b6000600160008473ffffffffffffffffffffffffffffffffffffffff1673ffffffffffffffffffffffffffffffffffffffff16815260200190815260200160002060008373ffffffffffffffffffffffffffffffffffffffff1673ffffffffffffffffffffffffffffffffffffffff16815260200190815260200160002054905092915050565b61075e610cac565b600073ffffffffffffffffffffffffffffffffffffffff168173ffffffffffffffffffffffffffffffffffffffff16036107cd576040517f08c379a00000000000000000000000000000000000000000000000000000000081526004016107c49061161d565b60405180910390fd5b6107d68161104d565b50565b600033905090565b600073ffffffffffffffffffffffffffffffffffffffff168373ffffffffffffffffffffffffffffffffffffffff1603610850576040517f08c379a0000000000000000000000000000000000000000000000000000000008152600401610847906116af565b60405180910390fd5b600073ffffffffffffffffffffffffffffffffffffffff168273ffffffffffffffffffffffffffffffffffffffff16036108bf576040517f08c379a00000000000000000000000000000000000000000000000000000000081526004016108b690611741565b60405180910390fd5b80600160008573ffffffffffffffffffffffffffffffffffffffff1673ffffffffffffffffffffffffffffffffffffffff16815260200190815260200160002060008473ffffffffffffffffffffffffffffffffffffffff1673ffffffffffffffffffffffffffffffffffffffff168152602001908152602001600020819055508173ffffffffffffffffffffffffffffffffffffffff168373ffffffffffffffffffffffffffffffffffffffff167f8c5be1e5ebec7d5bd14f71427d1e84f3dd0314c0f7b2291e5b200ac8c7c3b9258360405161099d919061131a565b60405180910390a3505050565b60006109b684846106cf565b90507fffffffffffffffffffffffffffffffffffffffffffffffffffffffffffffffff8114610a305781811015610a22576040517f08c379a0000000000000000000000000000000000000000000000000000000008152600401610a19906117ad565b60405180910390fd5b610a2f84848484036107e1565b5b50505050565b600073ffffffffffffffffffffffffffffffffffffffff168373ffffffffffffffffffffffffffffffffffffffff1603610aa5576040517f08c379a0000000000000000000000000000000000000000000000000000000008152600401610a9c9061183f565b60405180910390fd5b600073ffffffffffffffffffffffffffffffffffffffff168273ffffffffffffffffffffffffffffffffffffffff1603610b14576040517f08c379a0000000000000000000000000000000000000000000000000000000008152600401610b0b906118d1565b60405180910390fd5b610b1f838383611113565b60008060008573ffffffffffffffffffffffffffffffffffffffff1673ffffffffffffffffffffffffffffffffffffffff16815260200190815260200160002054905081811015610ba5576040517f08c379a0000000000000000000000000000000000000000000000000000000008152600401610b9c90611963565b60405180910390fd5b8181036000808673ffffffffffffffffffffffffffffffffffffffff1673ffffffffffffffffffffffffffffffffffffffff16815260200190815260200160002081905550816000808573ffffffffffffffffffffffffffffffffffffffff1673ffffffffffffffffffffffffffffffffffffffff168152602001908152602001600020600082825401925050819055508273ffffffffffffffffffffffffffffffffffffffff168473ffffffffffffffffffffffffffffffffffffffff167fddf252ad1be2c89b69c2b068fc378daa952ba7f163c4a11628f55a4df523b3ef84604051610c93919061131a565b60405180910390a3610ca6848484611118565b50505050565b610cb46107d9565b73ffffffffffffffffffffffffffffffffffffffff16610cd261056a565b73ffffffffffffffffffffffffffffffffffffffff1614610d28576040517f08c379a0000000000000000000000000000000000000000000000000000000008152600401610d1f906119cf565b60405180910390fd5b565b600073ffffffffffffffffffffffffffffffffffffffff168273ffffffffffffffffffffffffffffffffffffffff1603610d99576040517f08c379a0000000000000000000000000000000000000000000000000000000008152600401610d9090611a3b565b60405180910390fd5b610da560008383611113565b8060026000828254610db791906114e5565b92505081905550806000808473ffffffffffffffffffffffffffffffffffffffff1673ffffffffffffffffffffffffffffffffffffffff168152602001908152602001600020600082825401925050819055508173ffffffffffffffffffffffffffffffffffffffff16600073ffffffffffffffffffffffffffffffffffffffff167fddf252ad1be2c89b69c2b068fc378daa952ba7f163c4a11628f55a4df523b3ef83604051610e68919061131a565b60405180910390a3610e7c60008383611118565b5050565b600073ffffffffffffffffffffffffffffffffffffffff168273ffffffffffffffffffffffffffffffffffffffff1603610eef576040517f08c379a0000000000000000000000000000000000000000000000000000000008152600401610ee690611acd565b60405180910390fd5b610efb82600083611113565b60008060008473ffffffffffffffffffffffffffffffffffffffff1673ffffffffffffffffffffffffffffffffffffffff16815260200190815260200160002054905081811015610f81576040517f08c379a0000000000000000000000000000000000000000000000000000000008152600401610f7890611b5f565b60405180910390fd5b8181036000808573ffffffffffffffffffffffffffffffffffffffff1673ffffffffffffffffffffffffffffffffffffffff1681526020019081526020016000208190555081600260008282540392505081905550600073ffffffffffffffffffffffffffffffffffffffff168373ffffffffffffffffffffffffffffffffffffffff167fddf252ad1be2c89b69c2b068fc378daa952ba7f163c4a11628f55a4df523b3ef84604051611034919061131a565b60405180910390a361104883600084611118565b505050565b6000600560009054906101000a900473ffffffffffffffffffffffffffffffffffffffff16905081600560006101000a81548173ffffffffffffffffffffffffffffffffffffffff021916908373ffffffffffffffffffffffffffffffffffffffff1602179055508173ffffffffffffffffffffffffffffffffffffffff168173ffffffffffffffffffffffffffffffffffffffff167f8be0079c531659141344cd1fd0a4f28419497f9722a3daafe3b4186f6b6457e060405160405180910390a35050565b505050565b505050565b600081519050919050565b600082825260208201905092915050565b60005b8381101561115757808201518184015260208101905061113c565b60008484015250505050565b6000601f19601f8301169050919050565b600061117f8261111d565b6111898185611128565b9350611199818560208601611139565b6111a281611163565b840191505092915050565b600060208201905081810360008301526111c78184611174565b905092915050565b600080fd5b600073ffffffffffffffffffffffffffffffffffffffff82169050919050565b60006111ff826111d4565b9050919050565b61120f816111f4565b811461121a57600080fd5b50565b60008135905061122c81611206565b92915050565b6000819050919050565b61124581611232565b811461125057600080fd5b50565b6000813590506112628161123c565b92915050565b6000806040838503121561127f5761127e6111cf565b5b600061128d8582860161121d565b925050602061129e85828601611253565b9150509250929050565b60008115159050919050565b6112bd816112a8565b82525050565b60006020820190506112d860008301846112b4565b92915050565b6000602082840312156112f4576112f36111cf565b5b60006113028482850161121d565b91505092915050565b61131481611232565b82525050565b600060208201905061132f600083018461130b565b92915050565b60008060006060848603121561134e5761134d6111cf565b5b600061135c8682870161121d565b935050602061136d8682870161121d565b925050604061137e86828701611253565b9150509250925092565b600060ff82169050919050565b61139e81611388565b82525050565b60006020820190506113b96000830184611395565b92915050565b6000602082840312156113d5576113d46111cf565b5b60006113e384828501611253565b91505092915050565b6113f5816111f4565b82525050565b600060208201905061141060008301846113ec565b92915050565b6000806040838503121561142d5761142c6111cf565b5b600061143b8582860161121d565b925050602061144c8582860161121d565b9150509250929050565b7f4e487b7100000000000000000000000000000000000000000000000000000000600052602260045260246000fd5b6000600282049050600182168061149d57607f821691505b6020821081036114b0576114af611456565b5b50919050565b7f4e487b7100000000000000000000000000000000000000000000000000000000600052601160045260246000fd5b60006114f082611232565b91506114fb83611232565b9250828201905080821115611513576115126114b6565b5b92915050565b7f45524332303a2064656372656173656420616c6c6f77616e63652062656c6f7760008201527f207a65726f000000000000000000000000000000000000000000000000000000602082015250565b6000611575602583611128565b915061158082611519565b604082019050919050565b600060208201905081810360008301526115a481611568565b9050919050565b7f4f776e61626c653a206e6577206f776e657220697320746865207a65726f206160008201527f6464726573730000000000000000000000000000000000000000000000000000602082015250565b6000611607602683611128565b9150611612826115ab565b604082019050919050565b60006020820190508181036000830152611636816115fa565b9050919050565b7f45524332303a20617070726f76652066726f6d20746865207a65726f2061646460008201527f7265737300000000000000000000000000000000000000000000000000000000602082015250565b6000611699602483611128565b91506116a48261163d565b604082019050919050565b600060208201905081810360008301526116c88161168c565b9050919050565b7f45524332303a20617070726f766520746f20746865207a65726f20616464726560008201527f7373000000000000000000000000000000000000000000000000000000000000602082015250565b600061172b602283611128565b9150611736826116cf565b604082019050919050565b6000602082019050818103600083015261175a8161171e565b9050919050565b7f45524332303a20696e73756666696369656e7420616c6c6f77616e6365000000600082015250565b6000611797601d83611128565b91506117a282611761565b602082019050919050565b600060208201905081810360008301526117c68161178a565b9050919050565b7f45524332303a207472616e736665722066726f6d20746865207a65726f20616460008201527f6472657373000000000000000000000000000000000000000000000000000000602082015250565b6000611829602583611128565b9150611834826117cd565b604082019050919050565b600060208201905081810360008301526118588161181c565b9050919050565b7f45524332303a207472616e7366657220746f20746865207a65726f206164647260008201527f6573730000000000000000000000000000000000000000000000000000000000602082015250565b60006118bb602383611128565b91506118c68261185f565b604082019050919050565b600060208201905081810360008301526118ea816118ae565b9050919050565b7f45524332303a207472616e7366657220616d6f756e742065786365656473206260008201527f616c616e63650000000000000000000000000000000000000000000000000000602082015250565b600061194d602683611128565b9150611958826118f1565b604082019050919050565b6000602082019050818103600083015261197c81611940565b9050919050565b7f4f776e61626c653a2063616c6c6572206973206e6f7420746865206f776e6572600082015250565b60006119b9602083611128565b91506119c482611983565b602082019050919050565b600060208201905081810360008301526119e8816119ac565b9050919050565b7f45524332303a206d696e7420746f20746865207a65726f206164647265737300600082015250565b6000611a25601f83611128565b9150611a30826119ef565b602082019050919050565b60006020820190508181036000830152611a5481611a18565b9050919050565b7f45524332303a206275726e2066726f6d20746865207a65726f2061646472657360008201527f7300000000000000000000000000000000000000000000000000000000000000602082015250565b6000611ab7602183611128565b9150611ac282611a5b565b604082019050919050565b60006020820190508181036000830152611ae681611aaa565b9050919050565b7f45524332303a206275726e20616d6f756e7420657863656564732062616c616e60008201527f6365000000000000000000000000000000000000000000000000000000000000602082015250565b6000611b49602283611128565b9150611b5482611aed565b604082019050919050565b60006020820190508181036000830152611b7881611b3c565b905091905056fea2646970667358221220c395a1aca839c9b03e89acdb551460ffa26a45695abfd357889b1aadd3525d3964736f6c63430008120033",
  "linkReferences": {},
  "deployedLinkReferences": {}
}